{
  "_format": "hh-sol-artifact-1",
  "contractName": "CoffeeSupplyChain",
  "sourceName": "contracts/CoffeeSupplyChain.sol",
  "abi": [
    {
      "inputs": [],
      "stateMutability": "nonpayable",
      "type": "constructor"
    },
    {
      "anonymous": false,
      "inputs": [
        {
          "indexed": false,
          "internalType": "uint256",
          "name": "batchId",
          "type": "uint256"
        },
        {
          "indexed": false,
          "internalType": "string",
          "name": "details",
          "type": "string"
        },
        {
          "indexed": false,
          "internalType": "address",
          "name": "owner",
          "type": "address"
        }
      ],
      "name": "BatchAdded",
      "type": "event"
    },
    {
      "anonymous": false,
      "inputs": [
        {
          "indexed": false,
          "internalType": "string",
          "name": "name",
          "type": "string"
        },
        {
          "indexed": false,
          "internalType": "enum CoffeeSupplyChain.Occupation",
          "name": "occupation",
          "type": "uint8"
        },
        {
          "indexed": false,
          "internalType": "address",
          "name": "addr",
          "type": "address"
        }
      ],
      "name": "OwnerAdded",
      "type": "event"
    },
    {
      "anonymous": false,
      "inputs": [
        {
          "indexed": false,
          "internalType": "uint256",
          "name": "batchId",
          "type": "uint256"
        },
        {
          "indexed": false,
          "internalType": "enum CoffeeSupplyChain.State",
          "name": "state",
          "type": "uint8"
        },
        {
          "indexed": false,
          "internalType": "address",
          "name": "owner",
          "type": "address"
        }
      ],
      "name": "StateChanged",
      "type": "event"
    },
    {
      "inputs": [
        {
          "internalType": "string",
          "name": "details",
          "type": "string"
        },
        {
          "internalType": "address",
          "name": "_owner",
          "type": "address"
        }
      ],
      "name": "addBatch",
      "outputs": [],
      "stateMutability": "nonpayable",
      "type": "function"
    },
    {
      "inputs": [
        {
          "internalType": "string",
          "name": "name",
          "type": "string"
        },
        {
          "internalType": "enum CoffeeSupplyChain.Occupation",
          "name": "occupation",
          "type": "uint8"
        },
        {
          "internalType": "address",
          "name": "addr",
          "type": "address"
        }
      ],
      "name": "addOwner",
      "outputs": [],
      "stateMutability": "nonpayable",
      "type": "function"
    },
    {
      "inputs": [],
      "name": "admin",
      "outputs": [
        {
          "internalType": "address",
          "name": "",
          "type": "address"
        }
      ],
      "stateMutability": "view",
      "type": "function"
    },
    {
      "inputs": [],
      "name": "batchCounter",
      "outputs": [
        {
          "internalType": "uint256",
          "name": "",
          "type": "uint256"
        }
      ],
      "stateMutability": "view",
      "type": "function"
    },
    {
      "inputs": [
        {
          "internalType": "uint256",
          "name": "",
          "type": "uint256"
        }
      ],
      "name": "batches",
      "outputs": [
        {
          "internalType": "uint256",
          "name": "id",
          "type": "uint256"
        },
        {
          "internalType": "string",
          "name": "details",
          "type": "string"
        },
        {
          "internalType": "address",
          "name": "owner",
          "type": "address"
        },
        {
          "internalType": "enum CoffeeSupplyChain.State",
          "name": "state",
          "type": "uint8"
        }
      ],
      "stateMutability": "view",
      "type": "function"
    },
    {
      "inputs": [
        {
          "internalType": "uint256",
          "name": "batchId",
          "type": "uint256"
        }
      ],
      "name": "getBatchDetails",
      "outputs": [
        {
          "internalType": "uint256",
          "name": "",
          "type": "uint256"
        },
        {
          "internalType": "string",
          "name": "",
          "type": "string"
        },
        {
          "internalType": "address",
          "name": "",
          "type": "address"
        },
        {
          "internalType": "enum CoffeeSupplyChain.State",
          "name": "",
          "type": "uint8"
        },
        {
          "internalType": "address[]",
          "name": "",
          "type": "address[]"
        }
      ],
      "stateMutability": "view",
      "type": "function"
    },
    {
      "inputs": [
        {
          "internalType": "uint256",
          "name": "batchId",
          "type": "uint256"
        }
      ],
      "name": "getBatchHistory",
      "outputs": [
        {
          "internalType": "address[]",
          "name": "",
          "type": "address[]"
        }
      ],
      "stateMutability": "view",
      "type": "function"
    },
    {
      "inputs": [
        {
          "internalType": "address",
          "name": "",
          "type": "address"
        }
      ],
      "name": "owners",
      "outputs": [
        {
          "internalType": "string",
          "name": "name",
          "type": "string"
        },
        {
          "internalType": "enum CoffeeSupplyChain.Occupation",
          "name": "occupation",
          "type": "uint8"
        }
      ],
      "stateMutability": "view",
      "type": "function"
    },
    {
      "inputs": [
        {
          "internalType": "uint256",
          "name": "batchId",
          "type": "uint256"
        },
        {
          "internalType": "address",
          "name": "newOwner",
          "type": "address"
        }
      ],
      "name": "transferOwnership",
      "outputs": [],
      "stateMutability": "nonpayable",
      "type": "function"
    },
    {
      "inputs": [
        {
          "internalType": "uint256",
          "name": "batchId",
          "type": "uint256"
        },
        {
          "internalType": "enum CoffeeSupplyChain.State",
          "name": "state",
          "type": "uint8"
        }
      ],
      "name": "updateState",
      "outputs": [],
      "stateMutability": "nonpayable",
      "type": "function"
    }
  ],
  "bytecode": "0x608060405234801561001057600080fd5b50600080546001600160a01b03191633179055610e43806100326000396000f3fe608060405234801561001057600080fd5b506004361061009e5760003560e01c80639d47dcc0116100665780639d47dcc01461011f578063b32c4d8d14610143578063c7a8ccb114610166578063f851a44014610186578063ffbafdfe146101b157600080fd5b8063022914a7146100a357806329507f73146100cd57806351d0eb64146100e257806368233eef146100f55780638ca347561461010c575b600080fd5b6100b66100b13660046108a7565b6101c4565b6040516100c4929190610939565b60405180910390f35b6100e06100db36600461095b565b61026b565b005b6100e06100f0366004610a2a565b610368565b6100fe60035481565b6040519081526020016100c4565b6100e061011a366004610a8e565b610416565b61013261012d366004610ad3565b6104c9565b6040516100c4959493929190610b41565b610156610151366004610ad3565b610664565b6040516100c49493929190610b94565b610179610174366004610ad3565b610724565b6040516100c49190610bd4565b600054610199906001600160a01b031681565b6040516001600160a01b0390911681526020016100c4565b6100e06101bf366004610be7565b610793565b6002602052600090815260409020805481906101df90610c1b565b80601f016020809104026020016040519081016040528092919081815260200182805461020b90610c1b565b80156102585780601f1061022d57610100808354040283529160200191610258565b820191906000526020600020905b81548152906001019060200180831161023b57829003601f168201915b5050506001909301549192505060ff1682565b60008281526001602052604090206002015482906001600160a01b031633146102cb5760405162461bcd60e51b815260206004820152600d60248201526c2737ba103a34329037bbb732b960991b60448201526064015b60405180910390fd5b60008381526001602081815260408084206002810180546001600160a01b0389166001600160a01b0319918216811783556003909301805496870181558752938620909401805490931617909155918590525490517f0bfcfd7f3019672c1facc0e1d9cdbffd5e867f82e8244a9fe3bfa7a14974998d9161035b91869160ff600160a01b90910416908690610c55565b60405180910390a1505050565b604051806040016040528084815260200183600381111561038b5761038b61090f565b90526001600160a01b0382166000908152600260205260409020815181906103b39082610cd3565b50602082015160018083018054909160ff19909116908360038111156103db576103db61090f565b02179055509050507f091198def3211b27709c521ebb8a2d8ada32560981ad60055a57785fc29e338083838360405161035b93929190610d93565b600354600081815260016020819052604090912091825581016104398482610cd3565b506002810180546001600160a81b0319166001600160a01b038416908117909155600380830180546001810182556000918252602082200180546001600160a01b03191690931790925580549161048f83610db5565b91905055507fc3556617ba287badca1a6c13209de719900800a6828b50e6f818183c0a542681600354848460405161035b93929190610ddc565b6000606060008060606000600160008881526020019081526020016000206040518060a00160405290816000820154815260200160018201805461050c90610c1b565b80601f016020809104026020016040519081016040528092919081815260200182805461053890610c1b565b80156105855780601f1061055a57610100808354040283529160200191610585565b820191906000526020600020905b81548152906001019060200180831161056857829003601f168201915b505050918352505060028201546001600160a01b0381166020830152604090910190600160a01b900460ff1660048111156105c2576105c261090f565b60048111156105d3576105d361090f565b81526020016003820180548060200260200160405190810160405280929190818152602001828054801561063057602002820191906000526020600020905b81546001600160a01b03168152600190910190602001808311610612575b5050509190925250508151602083015160408401516060850151608090950151929c919b5099509297509550909350505050565b60016020819052600091825260409091208054918101805461068590610c1b565b80601f01602080910402602001604051908101604052809291908181526020018280546106b190610c1b565b80156106fe5780601f106106d3576101008083540402835291602001916106fe565b820191906000526020600020905b8154815290600101906020018083116106e157829003601f168201915b505050600290930154919250506001600160a01b0381169060ff600160a01b9091041684565b60008181526001602090815260409182902060030180548351818402810184019094528084526060939283018282801561078757602002820191906000526020600020905b81546001600160a01b03168152600190910190602001808311610769575b50505050509050919050565b60008281526001602052604090206002015482906001600160a01b031633146107ee5760405162461bcd60e51b815260206004820152600d60248201526c2737ba103a34329037bbb732b960991b60448201526064016102c2565b6000838152600160205260409020600201805483919060ff60a01b1916600160a01b8360048111156108225761082261090f565b0217905550600083815260016020818152604080842060030180549384018155845292200180546001600160a01b0319163390811790915590517f0bfcfd7f3019672c1facc0e1d9cdbffd5e867f82e8244a9fe3bfa7a14974998d9161035b9186918691610c55565b80356001600160a01b03811681146108a257600080fd5b919050565b6000602082840312156108b957600080fd5b6108c28261088b565b9392505050565b6000815180845260005b818110156108ef576020818501810151868301820152016108d3565b506000602082860101526020601f19601f83011685010191505092915050565b634e487b7160e01b600052602160045260246000fd5b600481106109355761093561090f565b9052565b60408152600061094c60408301856108c9565b90506108c26020830184610925565b6000806040838503121561096e57600080fd5b8235915061097e6020840161088b565b90509250929050565b634e487b7160e01b600052604160045260246000fd5b600082601f8301126109ae57600080fd5b813567ffffffffffffffff808211156109c9576109c9610987565b604051601f8301601f19908116603f011681019082821181831017156109f1576109f1610987565b81604052838152866020858801011115610a0a57600080fd5b836020870160208301376000602085830101528094505050505092915050565b600080600060608486031215610a3f57600080fd5b833567ffffffffffffffff811115610a5657600080fd5b610a628682870161099d565b935050602084013560048110610a7757600080fd5b9150610a856040850161088b565b90509250925092565b60008060408385031215610aa157600080fd5b823567ffffffffffffffff811115610ab857600080fd5b610ac48582860161099d565b92505061097e6020840161088b565b600060208284031215610ae557600080fd5b5035919050565b600581106109355761093561090f565b60008151808452602080850194506020840160005b83811015610b365781516001600160a01b031687529582019590820190600101610b11565b509495945050505050565b85815260a060208201526000610b5a60a08301876108c9565b6001600160a01b0386166040840152610b766060840186610aec565b8281036080840152610b888185610afc565b98975050505050505050565b848152608060208201526000610bad60808301866108c9565b6001600160a01b03851660408401529050610bcb6060830184610aec565b95945050505050565b6020815260006108c26020830184610afc565b60008060408385031215610bfa57600080fd5b82359150602083013560058110610c1057600080fd5b809150509250929050565b600181811c90821680610c2f57607f821691505b602082108103610c4f57634e487b7160e01b600052602260045260246000fd5b50919050565b83815260608101610c696020830185610aec565b6001600160a01b03929092166040919091015292915050565b601f821115610cce576000816000526020600020601f850160051c81016020861015610cab5750805b601f850160051c820191505b81811015610cca57828155600101610cb7565b5050505b505050565b815167ffffffffffffffff811115610ced57610ced610987565b610d0181610cfb8454610c1b565b84610c82565b602080601f831160018114610d365760008415610d1e5750858301515b600019600386901b1c1916600185901b178555610cca565b600085815260208120601f198616915b82811015610d6557888601518255948401946001909101908401610d46565b5085821015610d835787850151600019600388901b60f8161c191681555b5050505050600190811b01905550565b606081526000610da660608301866108c9565b9050610c696020830185610925565b600060018201610dd557634e487b7160e01b600052601160045260246000fd5b5060010190565b838152606060208201526000610df560608301856108c9565b905060018060a01b038316604083015294935050505056fea2646970667358221220ac6f5a7fcd5f565588b744625c5dedc82650e9dddcaf2af6e0799a359d3a670764736f6c63430008180033",
  "linkReferences": {},
  "deployedLinkReferences": {}
}